{
  "_format": "hh-sol-artifact-1",
  "contractName": "Azuki",
  "sourceName": "contracts/Azuki.sol",
  "abi": [
    {
      "inputs": [],
      "stateMutability": "nonpayable",
      "type": "constructor"
    },
    {
      "inputs": [],
      "name": "ApprovalCallerNotOwnerNorApproved",
      "type": "error"
    },
    {
      "inputs": [],
      "name": "ApprovalQueryForNonexistentToken",
      "type": "error"
    },
    {
      "inputs": [],
      "name": "ApprovalToCurrentOwner",
      "type": "error"
    },
    {
      "inputs": [],
      "name": "ApproveToCaller",
      "type": "error"
    },
    {
      "inputs": [],
      "name": "BalanceQueryForZeroAddress",
      "type": "error"
    },
    {
      "inputs": [],
      "name": "MintToZeroAddress",
      "type": "error"
    },
    {
      "inputs": [],
      "name": "MintZeroQuantity",
      "type": "error"
    },
    {
      "inputs": [],
      "name": "OwnerQueryForNonexistentToken",
      "type": "error"
    },
    {
      "inputs": [],
      "name": "TransferCallerNotOwnerNorApproved",
      "type": "error"
    },
    {
      "inputs": [],
      "name": "TransferFromIncorrectOwner",
      "type": "error"
    },
    {
      "inputs": [],
      "name": "TransferToNonERC721ReceiverImplementer",
      "type": "error"
    },
    {
      "inputs": [],
      "name": "TransferToZeroAddress",
      "type": "error"
    },
    {
      "inputs": [],
      "name": "URIQueryForNonexistentToken",
      "type": "error"
    },
    {
      "anonymous": false,
      "inputs": [
        {
          "indexed": true,
          "internalType": "address",
          "name": "owner",
          "type": "address"
        },
        {
          "indexed": true,
          "internalType": "address",
          "name": "approved",
          "type": "address"
        },
        {
          "indexed": true,
          "internalType": "uint256",
          "name": "tokenId",
          "type": "uint256"
        }
      ],
      "name": "Approval",
      "type": "event"
    },
    {
      "anonymous": false,
      "inputs": [
        {
          "indexed": true,
          "internalType": "address",
          "name": "owner",
          "type": "address"
        },
        {
          "indexed": true,
          "internalType": "address",
          "name": "operator",
          "type": "address"
        },
        {
          "indexed": false,
          "internalType": "bool",
          "name": "approved",
          "type": "bool"
        }
      ],
      "name": "ApprovalForAll",
      "type": "event"
    },
    {
      "anonymous": false,
      "inputs": [
        {
          "indexed": true,
          "internalType": "address",
          "name": "from",
          "type": "address"
        },
        {
          "indexed": true,
          "internalType": "address",
          "name": "to",
          "type": "address"
        },
        {
          "indexed": true,
          "internalType": "uint256",
          "name": "tokenId",
          "type": "uint256"
        }
      ],
      "name": "Transfer",
      "type": "event"
    },
    {
      "inputs": [
        {
          "internalType": "address",
          "name": "to",
          "type": "address"
        },
        {
          "internalType": "uint256",
          "name": "tokenId",
          "type": "uint256"
        }
      ],
      "name": "approve",
      "outputs": [],
      "stateMutability": "nonpayable",
      "type": "function"
    },
    {
      "inputs": [
        {
          "internalType": "address",
          "name": "owner",
          "type": "address"
        }
      ],
      "name": "balanceOf",
      "outputs": [
        {
          "internalType": "uint256",
          "name": "",
          "type": "uint256"
        }
      ],
      "stateMutability": "view",
      "type": "function"
    },
    {
      "inputs": [],
      "name": "baseURI",
      "outputs": [
        {
          "internalType": "string",
          "name": "",
          "type": "string"
        }
      ],
      "stateMutability": "view",
      "type": "function"
    },
    {
      "inputs": [
        {
          "internalType": "uint256",
          "name": "tokenId",
          "type": "uint256"
        }
      ],
      "name": "getApproved",
      "outputs": [
        {
          "internalType": "address",
          "name": "",
          "type": "address"
        }
      ],
      "stateMutability": "view",
      "type": "function"
    },
    {
      "inputs": [
        {
          "internalType": "address",
          "name": "owner",
          "type": "address"
        },
        {
          "internalType": "address",
          "name": "operator",
          "type": "address"
        }
      ],
      "name": "isApprovedForAll",
      "outputs": [
        {
          "internalType": "bool",
          "name": "",
          "type": "bool"
        }
      ],
      "stateMutability": "view",
      "type": "function"
    },
    {
      "inputs": [
        {
          "internalType": "uint256",
          "name": "quantity",
          "type": "uint256"
        }
      ],
      "name": "mint",
      "outputs": [],
      "stateMutability": "nonpayable",
      "type": "function"
    },
    {
      "inputs": [],
      "name": "name",
      "outputs": [
        {
          "internalType": "string",
          "name": "",
          "type": "string"
        }
      ],
      "stateMutability": "view",
      "type": "function"
    },
    {
      "inputs": [
        {
          "internalType": "uint256",
          "name": "tokenId",
          "type": "uint256"
        }
      ],
      "name": "ownerOf",
      "outputs": [
        {
          "internalType": "address",
          "name": "",
          "type": "address"
        }
      ],
      "stateMutability": "view",
      "type": "function"
    },
    {
      "inputs": [
        {
          "internalType": "address",
          "name": "from",
          "type": "address"
        },
        {
          "internalType": "address",
          "name": "to",
          "type": "address"
        },
        {
          "internalType": "uint256",
          "name": "tokenId",
          "type": "uint256"
        }
      ],
      "name": "safeTransferFrom",
      "outputs": [],
      "stateMutability": "nonpayable",
      "type": "function"
    },
    {
      "inputs": [
        {
          "internalType": "address",
          "name": "from",
          "type": "address"
        },
        {
          "internalType": "address",
          "name": "to",
          "type": "address"
        },
        {
          "internalType": "uint256",
          "name": "tokenId",
          "type": "uint256"
        },
        {
          "internalType": "bytes",
          "name": "_data",
          "type": "bytes"
        }
      ],
      "name": "safeTransferFrom",
      "outputs": [],
      "stateMutability": "nonpayable",
      "type": "function"
    },
    {
      "inputs": [
        {
          "internalType": "address",
          "name": "operator",
          "type": "address"
        },
        {
          "internalType": "bool",
          "name": "approved",
          "type": "bool"
        }
      ],
      "name": "setApprovalForAll",
      "outputs": [],
      "stateMutability": "nonpayable",
      "type": "function"
    },
    {
      "inputs": [
        {
          "internalType": "bytes4",
          "name": "interfaceId",
          "type": "bytes4"
        }
      ],
      "name": "supportsInterface",
      "outputs": [
        {
          "internalType": "bool",
          "name": "",
          "type": "bool"
        }
      ],
      "stateMutability": "view",
      "type": "function"
    },
    {
      "inputs": [],
      "name": "symbol",
      "outputs": [
        {
          "internalType": "string",
          "name": "",
          "type": "string"
        }
      ],
      "stateMutability": "view",
      "type": "function"
    },
    {
      "inputs": [
        {
          "internalType": "uint256",
          "name": "tokenId",
          "type": "uint256"
        }
      ],
      "name": "tokenURI",
      "outputs": [
        {
          "internalType": "string",
          "name": "",
          "type": "string"
        }
      ],
      "stateMutability": "view",
      "type": "function"
    },
    {
      "inputs": [],
      "name": "totalSupply",
      "outputs": [
        {
          "internalType": "uint256",
          "name": "",
          "type": "uint256"
        }
      ],
      "stateMutability": "view",
      "type": "function"
    },
    {
      "inputs": [
        {
          "internalType": "address",
          "name": "from",
          "type": "address"
        },
        {
          "internalType": "address",
          "name": "to",
          "type": "address"
        },
        {
          "internalType": "uint256",
          "name": "tokenId",
          "type": "uint256"
        }
      ],
      "name": "transferFrom",
      "outputs": [],
      "stateMutability": "nonpayable",
      "type": "function"
    }
  ],
  "bytecode": "0x6080604052604051806080016040528060448152602001620027ba60449139600890805190602001906200003592919062000105565b503480156200004357600080fd5b506040518060400160405280600581526020017f417a756b690000000000000000000000000000000000000000000000000000008152506040518060400160405280600581526020017f415a554b490000000000000000000000000000000000000000000000000000008152508160029080519060200190620000c892919062000105565b508060039080519060200190620000e192919062000105565b50620000f26200010060201b60201c565b60008190555050506200021a565b600090565b8280546200011390620001e4565b90600052602060002090601f01602090048101928262000137576000855562000183565b82601f106200015257805160ff191683800117855562000183565b8280016001018555821562000183579182015b828111156200018257825182559160200191906001019062000165565b5b50905062000192919062000196565b5090565b5b80821115620001b157600081600090555060010162000197565b5090565b7f4e487b7100000000000000000000000000000000000000000000000000000000600052602260045260246000fd5b60006002820490506001821680620001fd57607f821691505b60208210811415620002145762000213620001b5565b5b50919050565b612590806200022a6000396000f3fe608060405234801561001057600080fd5b50600436106101005760003560e01c80636c0360eb11610097578063a22cb46511610066578063a22cb465146102ad578063b88d4fde146102c9578063c87b56dd146102e5578063e985e9c51461031557610100565b80636c0360eb1461022557806370a082311461024357806395d89b4114610273578063a0712d681461029157610100565b806318160ddd116100d357806318160ddd1461019f57806323b872dd146101bd57806342842e0e146101d95780636352211e146101f557610100565b806301ffc9a71461010557806306fdde0314610135578063081812fc14610153578063095ea7b314610183575b600080fd5b61011f600480360381019061011a9190611c9d565b610345565b60405161012c9190611ce5565b60405180910390f35b61013d610427565b60405161014a9190611d99565b60405180910390f35b61016d60048036038101906101689190611df1565b6104b9565b60405161017a9190611e5f565b60405180910390f35b61019d60048036038101906101989190611ea6565b610535565b005b6101a7610640565b6040516101b49190611ef5565b60405180910390f35b6101d760048036038101906101d29190611f10565b610657565b005b6101f360048036038101906101ee9190611f10565b610667565b005b61020f600480360381019061020a9190611df1565b610687565b60405161021c9190611e5f565b60405180910390f35b61022d61069d565b60405161023a9190611d99565b60405180910390f35b61025d60048036038101906102589190611f63565b61072b565b60405161026a9190611ef5565b60405180910390f35b61027b6107fb565b6040516102889190611d99565b60405180910390f35b6102ab60048036038101906102a69190611df1565b61088d565b005b6102c760048036038101906102c29190611fbc565b61089a565b005b6102e360048036038101906102de9190612131565b610a12565b005b6102ff60048036038101906102fa9190611df1565b610a8e565b60405161030c9190611d99565b60405180910390f35b61032f600480360381019061032a91906121b4565b610b2d565b60405161033c9190611ce5565b60405180910390f35b60007f80ac58cd000000000000000000000000000000000000000000000000000000007bffffffffffffffffffffffffffffffffffffffffffffffffffffffff1916827bffffffffffffffffffffffffffffffffffffffffffffffffffffffff1916148061041057507f5b5e139f000000000000000000000000000000000000000000000000000000007bffffffffffffffffffffffffffffffffffffffffffffffffffffffff1916827bffffffffffffffffffffffffffffffffffffffffffffffffffffffff1916145b80610420575061041f82610bc1565b5b9050919050565b60606002805461043690612223565b80601f016020809104026020016040519081016040528092919081815260200182805461046290612223565b80156104af5780601f10610484576101008083540402835291602001916104af565b820191906000526020600020905b81548152906001019060200180831161049257829003601f168201915b5050505050905090565b60006104c482610c2b565b6104fa576040517fcf4700e400000000000000000000000000000000000000000000000000000000815260040160405180910390fd5b6006600083815260200190815260200160002060009054906101000a900473ffffffffffffffffffffffffffffffffffffffff169050919050565b600061054082610687565b90508073ffffffffffffffffffffffffffffffffffffffff168373ffffffffffffffffffffffffffffffffffffffff1614156105a8576040517f943f7b8c00000000000000000000000000000000000000000000000000000000815260040160405180910390fd5b8073ffffffffffffffffffffffffffffffffffffffff166105c7610c79565b73ffffffffffffffffffffffffffffffffffffffff16141580156105f957506105f7816105f2610c79565b610b2d565b155b15610630576040517fcfb3b94200000000000000000000000000000000000000000000000000000000815260040160405180910390fd5b61063b838383610c81565b505050565b600061064a610d33565b6001546000540303905090565b610662838383610d38565b505050565b61068283838360405180602001604052806000815250610a12565b505050565b6000610692826111ee565b600001519050919050565b600880546106aa90612223565b80601f01602080910402602001604051908101604052809291908181526020018280546106d690612223565b80156107235780601f106106f857610100808354040283529160200191610723565b820191906000526020600020905b81548152906001019060200180831161070657829003601f168201915b505050505081565b60008073ffffffffffffffffffffffffffffffffffffffff168273ffffffffffffffffffffffffffffffffffffffff161415610793576040517f8f4eb60400000000000000000000000000000000000000000000000000000000815260040160405180910390fd5b600560008373ffffffffffffffffffffffffffffffffffffffff1673ffffffffffffffffffffffffffffffffffffffff16815260200190815260200160002060000160009054906101000a900467ffffffffffffffff1667ffffffffffffffff169050919050565b60606003805461080a90612223565b80601f016020809104026020016040519081016040528092919081815260200182805461083690612223565b80156108835780601f1061085857610100808354040283529160200191610883565b820191906000526020600020905b81548152906001019060200180831161086657829003601f168201915b5050505050905090565b610897338261147d565b50565b6108a2610c79565b73ffffffffffffffffffffffffffffffffffffffff168273ffffffffffffffffffffffffffffffffffffffff161415610907576040517fb06307db00000000000000000000000000000000000000000000000000000000815260040160405180910390fd5b8060076000610914610c79565b73ffffffffffffffffffffffffffffffffffffffff1673ffffffffffffffffffffffffffffffffffffffff16815260200190815260200160002060008473ffffffffffffffffffffffffffffffffffffffff1673ffffffffffffffffffffffffffffffffffffffff16815260200190815260200160002060006101000a81548160ff0219169083151502179055508173ffffffffffffffffffffffffffffffffffffffff166109c1610c79565b73ffffffffffffffffffffffffffffffffffffffff167f17307eab39ab6107e8899845ad3d59bd9653f200f220920489ca2b5937696c3183604051610a069190611ce5565b60405180910390a35050565b610a1d848484610d38565b610a3c8373ffffffffffffffffffffffffffffffffffffffff1661149b565b8015610a515750610a4f848484846114be565b155b15610a88576040517fd1a57ed600000000000000000000000000000000000000000000000000000000815260040160405180910390fd5b50505050565b6060610a9982610c2b565b610acf576040517fa14c4b5000000000000000000000000000000000000000000000000000000000815260040160405180910390fd5b6000610ad961160f565b9050600081511415610afa5760405180602001604052806000815250610b25565b80610b04846116a1565b604051602001610b15929190612291565b6040516020818303038152906040525b915050919050565b6000600760008473ffffffffffffffffffffffffffffffffffffffff1673ffffffffffffffffffffffffffffffffffffffff16815260200190815260200160002060008373ffffffffffffffffffffffffffffffffffffffff1673ffffffffffffffffffffffffffffffffffffffff16815260200190815260200160002060009054906101000a900460ff16905092915050565b60007f01ffc9a7000000000000000000000000000000000000000000000000000000007bffffffffffffffffffffffffffffffffffffffffffffffffffffffff1916827bffffffffffffffffffffffffffffffffffffffffffffffffffffffff1916149050919050565b600081610c36610d33565b11158015610c45575060005482105b8015610c72575060046000838152602001908152602001600020600001601c9054906101000a900460ff16155b9050919050565b600033905090565b826006600084815260200190815260200160002060006101000a81548173ffffffffffffffffffffffffffffffffffffffff021916908373ffffffffffffffffffffffffffffffffffffffff160217905550818373ffffffffffffffffffffffffffffffffffffffff168273ffffffffffffffffffffffffffffffffffffffff167f8c5be1e5ebec7d5bd14f71427d1e84f3dd0314c0f7b2291e5b200ac8c7c3b92560405160405180910390a4505050565b600090565b6000610d43826111ee565b90508373ffffffffffffffffffffffffffffffffffffffff16816000015173ffffffffffffffffffffffffffffffffffffffff1614610dae576040517fa114810000000000000000000000000000000000000000000000000000000000815260040160405180910390fd5b60008473ffffffffffffffffffffffffffffffffffffffff16610dcf610c79565b73ffffffffffffffffffffffffffffffffffffffff161480610dfe5750610dfd85610df8610c79565b610b2d565b5b80610e435750610e0c610c79565b73ffffffffffffffffffffffffffffffffffffffff16610e2b846104b9565b73ffffffffffffffffffffffffffffffffffffffff16145b905080610e7c576040517f59c896be00000000000000000000000000000000000000000000000000000000815260040160405180910390fd5b600073ffffffffffffffffffffffffffffffffffffffff168473ffffffffffffffffffffffffffffffffffffffff161415610ee3576040517fea553b3400000000000000000000000000000000000000000000000000000000815260040160405180910390fd5b610ef08585856001611802565b610efc60008487610c81565b6001600560008773ffffffffffffffffffffffffffffffffffffffff1673ffffffffffffffffffffffffffffffffffffffff16815260200190815260200160002060000160008282829054906101000a900467ffffffffffffffff160392506101000a81548167ffffffffffffffff021916908367ffffffffffffffff1602179055506001600560008673ffffffffffffffffffffffffffffffffffffffff1673ffffffffffffffffffffffffffffffffffffffff16815260200190815260200160002060000160008282829054906101000a900467ffffffffffffffff160192506101000a81548167ffffffffffffffff021916908367ffffffffffffffff1602179055506000600460008581526020019081526020016000209050848160000160006101000a81548173ffffffffffffffffffffffffffffffffffffffff021916908373ffffffffffffffffffffffffffffffffffffffff160217905550428160000160146101000a81548167ffffffffffffffff021916908367ffffffffffffffff16021790555060006001850190506000600460008381526020019081526020016000209050600073ffffffffffffffffffffffffffffffffffffffff168160000160009054906101000a900473ffffffffffffffffffffffffffffffffffffffff1673ffffffffffffffffffffffffffffffffffffffff16141561117c57600054821461117b57878160000160006101000a81548173ffffffffffffffffffffffffffffffffffffffff021916908373ffffffffffffffffffffffffffffffffffffffff16021790555084602001518160000160146101000a81548167ffffffffffffffff021916908367ffffffffffffffff1602179055505b5b505050828473ffffffffffffffffffffffffffffffffffffffff168673ffffffffffffffffffffffffffffffffffffffff167fddf252ad1be2c89b69c2b068fc378daa952ba7f163c4a11628f55a4df523b3ef60405160405180910390a46111e78585856001611808565b5050505050565b6111f6611bee565b600082905080611204610d33565b11158015611213575060005481105b15611446576000600460008381526020019081526020016000206040518060600160405290816000820160009054906101000a900473ffffffffffffffffffffffffffffffffffffffff1673ffffffffffffffffffffffffffffffffffffffff1673ffffffffffffffffffffffffffffffffffffffff1681526020016000820160149054906101000a900467ffffffffffffffff1667ffffffffffffffff1667ffffffffffffffff16815260200160008201601c9054906101000a900460ff1615151515815250509050806040015161144457600073ffffffffffffffffffffffffffffffffffffffff16816000015173ffffffffffffffffffffffffffffffffffffffff1614611328578092505050611478565b5b60011561144357818060019003925050600460008381526020019081526020016000206040518060600160405290816000820160009054906101000a900473ffffffffffffffffffffffffffffffffffffffff1673ffffffffffffffffffffffffffffffffffffffff1673ffffffffffffffffffffffffffffffffffffffff1681526020016000820160149054906101000a900467ffffffffffffffff1667ffffffffffffffff1667ffffffffffffffff16815260200160008201601c9054906101000a900460ff1615151515815250509050600073ffffffffffffffffffffffffffffffffffffffff16816000015173ffffffffffffffffffffffffffffffffffffffff161461143e578092505050611478565b611329565b5b505b6040517fdf2d9b4200000000000000000000000000000000000000000000000000000000815260040160405180910390fd5b919050565b61149782826040518060200160405280600081525061180e565b5050565b6000808273ffffffffffffffffffffffffffffffffffffffff163b119050919050565b60008373ffffffffffffffffffffffffffffffffffffffff1663150b7a026114e4610c79565b8786866040518563ffffffff1660e01b8152600401611506949392919061230a565b6020604051808303816000875af192505050801561154257506040513d601f19601f8201168201806040525081019061153f919061236b565b60015b6115bc573d8060008114611572576040519150601f19603f3d011682016040523d82523d6000602084013e611577565b606091505b506000815114156115b4576040517fd1a57ed600000000000000000000000000000000000000000000000000000000815260040160405180910390fd5b805181602001fd5b63150b7a0260e01b7bffffffffffffffffffffffffffffffffffffffffffffffffffffffff1916817bffffffffffffffffffffffffffffffffffffffffffffffffffffffff191614915050949350505050565b60606008805461161e90612223565b80601f016020809104026020016040519081016040528092919081815260200182805461164a90612223565b80156116975780601f1061166c57610100808354040283529160200191611697565b820191906000526020600020905b81548152906001019060200180831161167a57829003601f168201915b5050505050905090565b606060008214156116e9576040518060400160405280600181526020017f300000000000000000000000000000000000000000000000000000000000000081525090506117fd565b600082905060005b6000821461171b578080611704906123c7565b915050600a82611714919061243f565b91506116f1565b60008167ffffffffffffffff81111561173757611736612006565b5b6040519080825280601f01601f1916602001820160405280156117695781602001600182028036833780820191505090505b5090505b600085146117f6576001826117829190612470565b9150600a8561179191906124a4565b603061179d91906124d5565b60f81b8183815181106117b3576117b261252b565b5b60200101907effffffffffffffffffffffffffffffffffffffffffffffffffffffffffffff1916908160001a905350600a856117ef919061243f565b945061176d565b8093505050505b919050565b50505050565b50505050565b61181b8383836001611820565b505050565b600080549050600073ffffffffffffffffffffffffffffffffffffffff168573ffffffffffffffffffffffffffffffffffffffff16141561188d576040517f2e07630000000000000000000000000000000000000000000000000000000000815260040160405180910390fd5b60008414156118c8576040517fb562e8dd00000000000000000000000000000000000000000000000000000000815260040160405180910390fd5b6118d56000868387611802565b83600560008773ffffffffffffffffffffffffffffffffffffffff1673ffffffffffffffffffffffffffffffffffffffff16815260200190815260200160002060000160008282829054906101000a900467ffffffffffffffff160192506101000a81548167ffffffffffffffff021916908367ffffffffffffffff16021790555083600560008773ffffffffffffffffffffffffffffffffffffffff1673ffffffffffffffffffffffffffffffffffffffff16815260200190815260200160002060000160088282829054906101000a900467ffffffffffffffff160192506101000a81548167ffffffffffffffff021916908367ffffffffffffffff160217905550846004600083815260200190815260200160002060000160006101000a81548173ffffffffffffffffffffffffffffffffffffffff021916908373ffffffffffffffffffffffffffffffffffffffff160217905550426004600083815260200190815260200160002060000160146101000a81548167ffffffffffffffff021916908367ffffffffffffffff160217905550600081905060008582019050838015611a9f5750611a9e8773ffffffffffffffffffffffffffffffffffffffff1661149b565b5b15611b65575b818773ffffffffffffffffffffffffffffffffffffffff16600073ffffffffffffffffffffffffffffffffffffffff167fddf252ad1be2c89b69c2b068fc378daa952ba7f163c4a11628f55a4df523b3ef60405160405180910390a4611b1460008884806001019550886114be565b611b4a576040517fd1a57ed600000000000000000000000000000000000000000000000000000000815260040160405180910390fd5b80821415611aa5578260005414611b6057600080fd5b611bd1565b5b818060010192508773ffffffffffffffffffffffffffffffffffffffff16600073ffffffffffffffffffffffffffffffffffffffff167fddf252ad1be2c89b69c2b068fc378daa952ba7f163c4a11628f55a4df523b3ef60405160405180910390a480821415611b66575b816000819055505050611be76000868387611808565b5050505050565b6040518060600160405280600073ffffffffffffffffffffffffffffffffffffffff168152602001600067ffffffffffffffff1681526020016000151581525090565b6000604051905090565b600080fd5b600080fd5b60007fffffffff0000000000000000000000000000000000000000000000000000000082169050919050565b611c7a81611c45565b8114611c8557600080fd5b50565b600081359050611c9781611c71565b92915050565b600060208284031215611cb357611cb2611c3b565b5b6000611cc184828501611c88565b91505092915050565b60008115159050919050565b611cdf81611cca565b82525050565b6000602082019050611cfa6000830184611cd6565b92915050565b600081519050919050565b600082825260208201905092915050565b60005b83811015611d3a578082015181840152602081019050611d1f565b83811115611d49576000848401525b50505050565b6000601f19601f8301169050919050565b6000611d6b82611d00565b611d758185611d0b565b9350611d85818560208601611d1c565b611d8e81611d4f565b840191505092915050565b60006020820190508181036000830152611db38184611d60565b905092915050565b6000819050919050565b611dce81611dbb565b8114611dd957600080fd5b50565b600081359050611deb81611dc5565b92915050565b600060208284031215611e0757611e06611c3b565b5b6000611e1584828501611ddc565b91505092915050565b600073ffffffffffffffffffffffffffffffffffffffff82169050919050565b6000611e4982611e1e565b9050919050565b611e5981611e3e565b82525050565b6000602082019050611e746000830184611e50565b92915050565b611e8381611e3e565b8114611e8e57600080fd5b50565b600081359050611ea081611e7a565b92915050565b60008060408385031215611ebd57611ebc611c3b565b5b6000611ecb85828601611e91565b9250506020611edc85828601611ddc565b9150509250929050565b611eef81611dbb565b82525050565b6000602082019050611f0a6000830184611ee6565b92915050565b600080600060608486031215611f2957611f28611c3b565b5b6000611f3786828701611e91565b9350506020611f4886828701611e91565b9250506040611f5986828701611ddc565b9150509250925092565b600060208284031215611f7957611f78611c3b565b5b6000611f8784828501611e91565b91505092915050565b611f9981611cca565b8114611fa457600080fd5b50565b600081359050611fb681611f90565b92915050565b60008060408385031215611fd357611fd2611c3b565b5b6000611fe185828601611e91565b9250506020611ff285828601611fa7565b9150509250929050565b600080fd5b600080fd5b7f4e487b7100000000000000000000000000000000000000000000000000000000600052604160045260246000fd5b61203e82611d4f565b810181811067ffffffffffffffff8211171561205d5761205c612006565b5b80604052505050565b6000612070611c31565b905061207c8282612035565b919050565b600067ffffffffffffffff82111561209c5761209b612006565b5b6120a582611d4f565b9050602081019050919050565b82818337600083830152505050565b60006120d46120cf84612081565b612066565b9050828152602081018484840111156120f0576120ef612001565b5b6120fb8482856120b2565b509392505050565b600082601f83011261211857612117611ffc565b5b81356121288482602086016120c1565b91505092915050565b6000806000806080858703121561214b5761214a611c3b565b5b600061215987828801611e91565b945050602061216a87828801611e91565b935050604061217b87828801611ddc565b925050606085013567ffffffffffffffff81111561219c5761219b611c40565b5b6121a887828801612103565b91505092959194509250565b600080604083850312156121cb576121ca611c3b565b5b60006121d985828601611e91565b92505060206121ea85828601611e91565b9150509250929050565b7f4e487b7100000000000000000000000000000000000000000000000000000000600052602260045260246000fd5b6000600282049050600182168061223b57607f821691505b6020821081141561224f5761224e6121f4565b5b50919050565b600081905092915050565b600061226b82611d00565b6122758185612255565b9350612285818560208601611d1c565b80840191505092915050565b600061229d8285612260565b91506122a98284612260565b91508190509392505050565b600081519050919050565b600082825260208201905092915050565b60006122dc826122b5565b6122e681856122c0565b93506122f6818560208601611d1c565b6122ff81611d4f565b840191505092915050565b600060808201905061231f6000830187611e50565b61232c6020830186611e50565b6123396040830185611ee6565b818103606083015261234b81846122d1565b905095945050505050565b60008151905061236581611c71565b92915050565b60006020828403121561238157612380611c3b565b5b600061238f84828501612356565b91505092915050565b7f4e487b7100000000000000000000000000000000000000000000000000000000600052601160045260246000fd5b60006123d282611dbb565b91507fffffffffffffffffffffffffffffffffffffffffffffffffffffffffffffffff82141561240557612404612398565b5b600182019050919050565b7f4e487b7100000000000000000000000000000000000000000000000000000000600052601260045260246000fd5b600061244a82611dbb565b915061245583611dbb565b92508261246557612464612410565b5b828204905092915050565b600061247b82611dbb565b915061248683611dbb565b92508282101561249957612498612398565b5b828203905092915050565b60006124af82611dbb565b91506124ba83611dbb565b9250826124ca576124c9612410565b5b828206905092915050565b60006124e082611dbb565b91506124eb83611dbb565b9250827fffffffffffffffffffffffffffffffffffffffffffffffffffffffffffffffff038211156125205761251f612398565b5b828201905092915050565b7f4e487b7100000000000000000000000000000000000000000000000000000000600052603260045260246000fdfea264697066735822122037caaff4b3e8412d8d65c8bd1177f3f7225eb84f3affafefe6d84ebea5d7195b64736f6c634300080c003368747470733a2f2f697066732e696f2f697066732f516d62746d3338663876384d6647775963375748647a4e50454e686f564e7a5651674e63517979444a5959676b362f",
  "linkReferences": {},
  "deployedLinkReferences": {}
}